{
  "_format": "hh-sol-artifact-1",
  "contractName": "Lottery",
  "sourceName": "contracts/Lottery.sol",
  "abi": [
    {
      "inputs": [
        {
          "internalType": "uint256",
          "name": "_purchaseRatio",
          "type": "uint256"
        },
        {
          "internalType": "uint256",
          "name": "_betPrice",
          "type": "uint256"
        },
        {
          "internalType": "uint256",
          "name": "_betFee",
          "type": "uint256"
        }
      ],
      "stateMutability": "nonpayable",
      "type": "constructor"
    },
    {
      "anonymous": false,
      "inputs": [
        {
          "indexed": true,
          "internalType": "address",
          "name": "previousOwner",
          "type": "address"
        },
        {
          "indexed": true,
          "internalType": "address",
          "name": "newOwner",
          "type": "address"
        }
      ],
      "name": "OwnershipTransferred",
      "type": "event"
    },
    {
      "inputs": [],
      "name": "bet",
      "outputs": [],
      "stateMutability": "nonpayable",
      "type": "function"
    },
    {
      "inputs": [],
      "name": "betFee",
      "outputs": [
        {
          "internalType": "uint256",
          "name": "",
          "type": "uint256"
        }
      ],
      "stateMutability": "view",
      "type": "function"
    },
    {
      "inputs": [
        {
          "internalType": "uint256",
          "name": "times",
          "type": "uint256"
        }
      ],
      "name": "betMany",
      "outputs": [],
      "stateMutability": "nonpayable",
      "type": "function"
    },
    {
      "inputs": [],
      "name": "betPrice",
      "outputs": [
        {
          "internalType": "uint256",
          "name": "",
          "type": "uint256"
        }
      ],
      "stateMutability": "view",
      "type": "function"
    },
    {
      "inputs": [],
      "name": "betsClosingTime",
      "outputs": [
        {
          "internalType": "uint256",
          "name": "",
          "type": "uint256"
        }
      ],
      "stateMutability": "view",
      "type": "function"
    },
    {
      "inputs": [],
      "name": "betsOpen",
      "outputs": [
        {
          "internalType": "bool",
          "name": "",
          "type": "bool"
        }
      ],
      "stateMutability": "view",
      "type": "function"
    },
    {
      "inputs": [],
      "name": "closeLottery",
      "outputs": [],
      "stateMutability": "nonpayable",
      "type": "function"
    },
    {
      "inputs": [
        {
          "internalType": "string",
          "name": "tokenName",
          "type": "string"
        },
        {
          "internalType": "string",
          "name": "tokenSymbol",
          "type": "string"
        }
      ],
      "name": "createLotteryToken",
      "outputs": [],
      "stateMutability": "nonpayable",
      "type": "function"
    },
    {
      "inputs": [],
      "name": "getRandomNumber",
      "outputs": [
        {
          "internalType": "uint256",
          "name": "randomNumber",
          "type": "uint256"
        }
      ],
      "stateMutability": "view",
      "type": "function"
    },
    {
      "inputs": [],
      "name": "lotteryRound",
      "outputs": [
        {
          "internalType": "uint256",
          "name": "",
          "type": "uint256"
        }
      ],
      "stateMutability": "view",
      "type": "function"
    },
    {
      "inputs": [
        {
          "internalType": "uint256",
          "name": "closingTime",
          "type": "uint256"
        }
      ],
      "name": "openBets",
      "outputs": [],
      "stateMutability": "nonpayable",
      "type": "function"
    },
    {
      "inputs": [],
      "name": "owner",
      "outputs": [
        {
          "internalType": "address",
          "name": "",
          "type": "address"
        }
      ],
      "stateMutability": "view",
      "type": "function"
    },
    {
      "inputs": [],
      "name": "ownerPool",
      "outputs": [
        {
          "internalType": "uint256",
          "name": "",
          "type": "uint256"
        }
      ],
      "stateMutability": "view",
      "type": "function"
    },
    {
      "inputs": [
        {
          "internalType": "uint256",
          "name": "amount",
          "type": "uint256"
        }
      ],
      "name": "ownerWithdraw",
      "outputs": [],
      "stateMutability": "nonpayable",
      "type": "function"
    },
    {
      "inputs": [],
      "name": "paymentToken",
      "outputs": [
        {
          "internalType": "contract LotteryToken",
          "name": "",
          "type": "address"
        }
      ],
      "stateMutability": "view",
      "type": "function"
    },
    {
      "inputs": [
        {
          "internalType": "address",
          "name": "",
          "type": "address"
        }
      ],
      "name": "prize",
      "outputs": [
        {
          "internalType": "uint256",
          "name": "",
          "type": "uint256"
        }
      ],
      "stateMutability": "view",
      "type": "function"
    },
    {
      "inputs": [],
      "name": "prizePool",
      "outputs": [
        {
          "internalType": "uint256",
          "name": "",
          "type": "uint256"
        }
      ],
      "stateMutability": "view",
      "type": "function"
    },
    {
      "inputs": [
        {
          "internalType": "uint256",
          "name": "amount",
          "type": "uint256"
        }
      ],
      "name": "prizeWithdraw",
      "outputs": [],
      "stateMutability": "nonpayable",
      "type": "function"
    },
    {
      "inputs": [],
      "name": "purchaseRatio",
      "outputs": [
        {
          "internalType": "uint256",
          "name": "",
          "type": "uint256"
        }
      ],
      "stateMutability": "view",
      "type": "function"
    },
    {
      "inputs": [],
      "name": "purchaseTokens",
      "outputs": [],
      "stateMutability": "payable",
      "type": "function"
    },
    {
      "inputs": [],
      "name": "renounceOwnership",
      "outputs": [],
      "stateMutability": "nonpayable",
      "type": "function"
    },
    {
      "inputs": [
        {
          "internalType": "uint256",
          "name": "amount",
          "type": "uint256"
        }
      ],
      "name": "returnTokens",
      "outputs": [],
      "stateMutability": "nonpayable",
      "type": "function"
    },
    {
      "inputs": [
        {
          "internalType": "uint256",
          "name": "",
          "type": "uint256"
        }
      ],
      "name": "roundWinners",
      "outputs": [
        {
          "internalType": "uint256",
          "name": "round",
          "type": "uint256"
        },
        {
          "internalType": "address",
          "name": "winner",
          "type": "address"
        },
        {
          "internalType": "uint256",
          "name": "reward",
          "type": "uint256"
        }
      ],
      "stateMutability": "view",
      "type": "function"
    },
    {
      "inputs": [
        {
          "internalType": "address",
          "name": "newOwner",
          "type": "address"
        }
      ],
      "name": "transferOwnership",
      "outputs": [],
      "stateMutability": "nonpayable",
      "type": "function"
    }
  ],
  "bytecode": "0x60806040523480156200001157600080fd5b50604051620051a4380380620051a4833981810160405281019062000037919062000181565b620000576200004b6200007560201b60201c565b6200007d60201b60201c565b826002819055508160038190555080600481905550505050620001dd565b600033905090565b60008060009054906101000a900473ffffffffffffffffffffffffffffffffffffffff169050816000806101000a81548173ffffffffffffffffffffffffffffffffffffffff021916908373ffffffffffffffffffffffffffffffffffffffff1602179055508173ffffffffffffffffffffffffffffffffffffffff168173ffffffffffffffffffffffffffffffffffffffff167f8be0079c531659141344cd1fd0a4f28419497f9722a3daafe3b4186f6b6457e060405160405180910390a35050565b600080fd5b6000819050919050565b6200015b8162000146565b81146200016757600080fd5b50565b6000815190506200017b8162000150565b92915050565b6000806000606084860312156200019d576200019c62000141565b5b6000620001ad868287016200016a565b9350506020620001c0868287016200016a565b9250506040620001d3868287016200016a565b9150509250925092565b614fb780620001ed6000396000f3fe608060405260043610620001345760003560e01c806311610c25146200013957806318c3496514620001535780632b65e04014620001835780633013ce2914620001b35780633290ce2914620001e357806333f707d114620001ef5780633ae1786f146200021d5780633cc121e6146200024b5780636fd098161462000279578063715018a61462000293578063719ce73e14620002ad578063729e91e914620002dd57806376a4956c146200030b578063841e6ce914620003515780638adf9c1f14620003815780638da5cb5b14620003c557806395cadc4714620003f5578063990a49f51462000425578063afd0762e1462000453578063c51964261462000481578063cfd8a17514620004b1578063d1b258ff14620004e1578063dbdff2c11462000511578063f2fde38b1462000541575b600080fd5b3480156200014657600080fd5b50620001516200056f565b005b3480156200016057600080fd5b506200016b62000727565b6040516200017a919062001635565b60405180910390f35b3480156200019057600080fd5b506200019b6200072d565b604051620001aa919062001635565b60405180910390f35b348015620001c057600080fd5b50620001cb62000733565b604051620001da9190620016dd565b60405180910390f35b620001ed62000759565b005b348015620001fc57600080fd5b506200021b60048036038101906200021591906200173f565b62000891565b005b3480156200022a57600080fd5b506200024960048036038101906200024391906200173f565b62000a3b565b005b3480156200025857600080fd5b506200027760048036038101906200027191906200173f565b62000bbc565b005b3480156200028657600080fd5b506200029162000dd6565b005b348015620002a057600080fd5b50620002ab62001034565b005b348015620002ba57600080fd5b50620002c56200104c565b604051620002d4919062001635565b60405180910390f35b348015620002ea57600080fd5b506200030960048036038101906200030391906200173f565b62001052565b005b3480156200031857600080fd5b506200033760048036038101906200033191906200173f565b6200108e565b604051620003489392919062001796565b60405180910390f35b3480156200035e57600080fd5b5062000369620010e9565b60405162000378919062001635565b60405180910390f35b3480156200038e57600080fd5b50620003ad6004803603810190620003a7919062001804565b620010ef565b604051620003bc919062001635565b60405180910390f35b348015620003d257600080fd5b50620003dd62001107565b604051620003ec919062001836565b60405180910390f35b3480156200040257600080fd5b506200040d62001130565b6040516200041c919062001635565b60405180910390f35b3480156200043257600080fd5b506200045160048036038101906200044b91906200173f565b62001136565b005b3480156200046057600080fd5b506200047f6004803603810190620004799190620019b5565b620012ab565b005b3480156200048e57600080fd5b5062000499620013c8565b604051620004a8919062001635565b60405180910390f35b348015620004be57600080fd5b50620004c9620013ce565b604051620004d8919062001635565b60405180910390f35b348015620004ee57600080fd5b50620004f9620013d4565b60405162000508919062001a57565b60405180910390f35b3480156200051e57600080fd5b5062000529620013e7565b60405162000538919062001635565b60405180910390f35b3480156200054e57600080fd5b506200056d600480360381019062000567919062001804565b620013ef565b005b600760009054906101000a900460ff1680156200058d575060085442105b620005cf576040517f08c379a0000000000000000000000000000000000000000000000000000000008152600401620005c69062001ad5565b60405180910390fd5b60045460066000828254620005e5919062001b26565b925050819055506003546005600082825462000602919062001b26565b92505081905550600c339080600181540180825580915050600190039060005260206000200160009091909190916101000a81548173ffffffffffffffffffffffffffffffffffffffff021916908373ffffffffffffffffffffffffffffffffffffffff160217905550600160009054906101000a900473ffffffffffffffffffffffffffffffffffffffff1673ffffffffffffffffffffffffffffffffffffffff166323b872dd3330600454600354620006be919062001b26565b6040518463ffffffff1660e01b8152600401620006de9392919062001b61565b6020604051808303816000875af1158015620006fe573d6000803e3d6000fd5b505050506040513d601f19601f8201168201806040525081019062000724919062001bcf565b50565b60085481565b60065481565b600160009054906101000a900473ffffffffffffffffffffffffffffffffffffffff1681565b600073ffffffffffffffffffffffffffffffffffffffff16600160009054906101000a900473ffffffffffffffffffffffffffffffffffffffff1673ffffffffffffffffffffffffffffffffffffffff1603620007ed576040517f08c379a0000000000000000000000000000000000000000000000000000000008152600401620007e49062001c51565b60405180910390fd5b600160009054906101000a900473ffffffffffffffffffffffffffffffffffffffff1673ffffffffffffffffffffffffffffffffffffffff166340c10f1933600254346200083c919062001c73565b6040518363ffffffff1660e01b81526004016200085b92919062001cbe565b600060405180830381600087803b1580156200087657600080fd5b505af11580156200088b573d6000803e3d6000fd5b50505050565b6200089b62001479565b600073ffffffffffffffffffffffffffffffffffffffff16600160009054906101000a900473ffffffffffffffffffffffffffffffffffffffff1673ffffffffffffffffffffffffffffffffffffffff16036200092f576040517f08c379a0000000000000000000000000000000000000000000000000000000008152600401620009269062001c51565b60405180910390fd5b60065481111562000977576040517f08c379a00000000000000000000000000000000000000000000000000000000081526004016200096e9062001d3b565b60405180910390fd5b80600660008282546200098b919062001d5d565b92505081905550600160009054906101000a900473ffffffffffffffffffffffffffffffffffffffff1673ffffffffffffffffffffffffffffffffffffffff1663a9059cbb33836040518363ffffffff1660e01b8152600401620009f192919062001cbe565b6020604051808303816000875af115801562000a11573d6000803e3d6000fd5b505050506040513d601f19601f8201168201806040525081019062000a37919062001bcf565b5050565b600073ffffffffffffffffffffffffffffffffffffffff16600160009054906101000a900473ffffffffffffffffffffffffffffffffffffffff1673ffffffffffffffffffffffffffffffffffffffff160362000acf576040517f08c379a000000000000000000000000000000000000000000000000000000000815260040162000ac69062001c51565b60405180910390fd5b600160009054906101000a900473ffffffffffffffffffffffffffffffffffffffff1673ffffffffffffffffffffffffffffffffffffffff166379cc679033836040518363ffffffff1660e01b815260040162000b2e92919062001cbe565b600060405180830381600087803b15801562000b4957600080fd5b505af115801562000b5e573d6000803e3d6000fd5b505050503373ffffffffffffffffffffffffffffffffffffffff166108fc6002548362000b8c919062001dc7565b9081150290604051600060405180830381858888f1935050505015801562000bb8573d6000803e3d6000fd5b5050565b600073ffffffffffffffffffffffffffffffffffffffff16600160009054906101000a900473ffffffffffffffffffffffffffffffffffffffff1673ffffffffffffffffffffffffffffffffffffffff160362000c50576040517f08c379a000000000000000000000000000000000000000000000000000000000815260040162000c479062001c51565b60405180910390fd5b600a60003373ffffffffffffffffffffffffffffffffffffffff1673ffffffffffffffffffffffffffffffffffffffff1681526020019081526020016000205481111562000cd5576040517f08c379a000000000000000000000000000000000000000000000000000000000815260040162000ccc9062001e4f565b60405180910390fd5b80600a60003373ffffffffffffffffffffffffffffffffffffffff1673ffffffffffffffffffffffffffffffffffffffff168152602001908152602001600020600082825462000d26919062001d5d565b92505081905550600160009054906101000a900473ffffffffffffffffffffffffffffffffffffffff1673ffffffffffffffffffffffffffffffffffffffff1663a9059cbb33836040518363ffffffff1660e01b815260040162000d8c92919062001cbe565b6020604051808303816000875af115801562000dac573d6000803e3d6000fd5b505050506040513d601f19601f8201168201806040525081019062000dd2919062001bcf565b5050565b60085442101562000e1e576040517f08c379a000000000000000000000000000000000000000000000000000000000815260040162000e159062001ec1565b60405180910390fd5b600760009054906101000a900460ff1662000e70576040517f08c379a000000000000000000000000000000000000000000000000000000000815260040162000e679062001f33565b60405180910390fd5b6000600c80549050111562001017576000600c8054905062000e91620013e7565b62000e9d919062001f55565b90506000600c828154811062000eb85762000eb762001f8d565b5b9060005260206000200160009054906101000a900473ffffffffffffffffffffffffffffffffffffffff169050600554600a60008373ffffffffffffffffffffffffffffffffffffffff1673ffffffffffffffffffffffffffffffffffffffff168152602001908152602001600020600082825462000f38919062001b26565b92505081905550600b604051806060016040528060095481526020018373ffffffffffffffffffffffffffffffffffffffff16815260200160055481525090806001815401808255809150506001900390600052602060002090600302016000909190919091506000820151816000015560208201518160010160006101000a81548173ffffffffffffffffffffffffffffffffffffffff021916908373ffffffffffffffffffffffffffffffffffffffff1602179055506040820151816002015550506000600581905550600c6000620010149190620015ca565b50505b6000600760006101000a81548160ff021916908315150217905550565b6200103e62001479565b6200104a6000620014fe565b565b60055481565b600081116200106057600080fd5b5b60008111156200108b57620010756200056f565b8080620010829062001fbc565b91505062001061565b50565b600b81815481106200109f57600080fd5b90600052602060002090600302016000915090508060000154908060010160009054906101000a900473ffffffffffffffffffffffffffffffffffffffff16908060020154905083565b60045481565b600a6020528060005260406000206000915090505481565b60008060009054906101000a900473ffffffffffffffffffffffffffffffffffffffff16905090565b60025481565b6200114062001479565b600760009054906101000a900460ff161562001193576040517f08c379a00000000000000000000000000000000000000000000000000000000081526004016200118a906200203a565b60405180910390fd5b600073ffffffffffffffffffffffffffffffffffffffff16600160009054906101000a900473ffffffffffffffffffffffffffffffffffffffff1673ffffffffffffffffffffffffffffffffffffffff160362001227576040517f08c379a00000000000000000000000000000000000000000000000000000000081526004016200121e9062001c51565b60405180910390fd5b4281116200126c576040517f08c379a00000000000000000000000000000000000000000000000000000000081526004016200126390620020d2565b60405180910390fd5b806008819055506001600760006101000a81548160ff02191690831515021790555060096000815480929190620012a390620020f4565b919050555050565b620012b562001479565b600073ffffffffffffffffffffffffffffffffffffffff16600160009054906101000a900473ffffffffffffffffffffffffffffffffffffffff1673ffffffffffffffffffffffffffffffffffffffff161462001349576040517f08c379a0000000000000000000000000000000000000000000000000000000008152600401620013409062002191565b60405180910390fd5b81816040516200135990620015ed565b620013669291906200222b565b604051809103906000f08015801562001383573d6000803e3d6000fd5b50600160006101000a81548173ffffffffffffffffffffffffffffffffffffffff021916908373ffffffffffffffffffffffffffffffffffffffff1602179055505050565b60095481565b60035481565b600760009054906101000a900460ff1681565b600044905090565b620013f962001479565b600073ffffffffffffffffffffffffffffffffffffffff168173ffffffffffffffffffffffffffffffffffffffff16036200146b576040517f08c379a00000000000000000000000000000000000000000000000000000000081526004016200146290620022dc565b60405180910390fd5b6200147681620014fe565b50565b62001483620015c2565b73ffffffffffffffffffffffffffffffffffffffff16620014a362001107565b73ffffffffffffffffffffffffffffffffffffffff1614620014fc576040517f08c379a0000000000000000000000000000000000000000000000000000000008152600401620014f3906200234e565b60405180910390fd5b565b60008060009054906101000a900473ffffffffffffffffffffffffffffffffffffffff169050816000806101000a81548173ffffffffffffffffffffffffffffffffffffffff021916908373ffffffffffffffffffffffffffffffffffffffff1602179055508173ffffffffffffffffffffffffffffffffffffffff168173ffffffffffffffffffffffffffffffffffffffff167f8be0079c531659141344cd1fd0a4f28419497f9722a3daafe3b4186f6b6457e060405160405180910390a35050565b600033905090565b5080546000825590600052602060002090810190620015ea9190620015fb565b50565b612c11806200237183390190565b5b8082111562001616576000816000905550600101620015fc565b5090565b6000819050919050565b6200162f816200161a565b82525050565b60006020820190506200164c600083018462001624565b92915050565b600073ffffffffffffffffffffffffffffffffffffffff82169050919050565b6000819050919050565b60006200169d62001697620016918462001652565b62001672565b62001652565b9050919050565b6000620016b1826200167c565b9050919050565b6000620016c582620016a4565b9050919050565b620016d781620016b8565b82525050565b6000602082019050620016f46000830184620016cc565b92915050565b6000604051905090565b600080fd5b600080fd5b62001719816200161a565b81146200172557600080fd5b50565b60008135905062001739816200170e565b92915050565b60006020828403121562001758576200175762001704565b5b6000620017688482850162001728565b91505092915050565b60006200177e8262001652565b9050919050565b620017908162001771565b82525050565b6000606082019050620017ad600083018662001624565b620017bc602083018562001785565b620017cb604083018462001624565b949350505050565b620017de8162001771565b8114620017ea57600080fd5b50565b600081359050620017fe81620017d3565b92915050565b6000602082840312156200181d576200181c62001704565b5b60006200182d84828501620017ed565b91505092915050565b60006020820190506200184d600083018462001785565b92915050565b600080fd5b600080fd5b6000601f19601f8301169050919050565b7f4e487b7100000000000000000000000000000000000000000000000000000000600052604160045260246000fd5b620018a8826200185d565b810181811067ffffffffffffffff82111715620018ca57620018c96200186e565b5b80604052505050565b6000620018df620016fa565b9050620018ed82826200189d565b919050565b600067ffffffffffffffff82111562001910576200190f6200186e565b5b6200191b826200185d565b9050602081019050919050565b82818337600083830152505050565b60006200194e6200194884620018f2565b620018d3565b9050828152602081018484840111156200196d576200196c62001858565b5b6200197a84828562001928565b509392505050565b600082601f8301126200199a576200199962001853565b5b8135620019ac84826020860162001937565b91505092915050565b60008060408385031215620019cf57620019ce62001704565b5b600083013567ffffffffffffffff811115620019f057620019ef62001709565b5b620019fe8582860162001982565b925050602083013567ffffffffffffffff81111562001a225762001a2162001709565b5b62001a308582860162001982565b9150509250929050565b60008115159050919050565b62001a518162001a3a565b82525050565b600060208201905062001a6e600083018462001a46565b92915050565b600082825260208201905092915050565b7f4c6f747465727920697320636c6f736564000000000000000000000000000000600082015250565b600062001abd60118362001a74565b915062001aca8262001a85565b602082019050919050565b6000602082019050818103600083015262001af08162001aae565b9050919050565b7f4e487b7100000000000000000000000000000000000000000000000000000000600052601160045260246000fd5b600062001b33826200161a565b915062001b40836200161a565b925082820190508082111562001b5b5762001b5a62001af7565b5b92915050565b600060608201905062001b78600083018662001785565b62001b87602083018562001785565b62001b96604083018462001624565b949350505050565b62001ba98162001a3a565b811462001bb557600080fd5b50565b60008151905062001bc98162001b9e565b92915050565b60006020828403121562001be85762001be762001704565b5b600062001bf88482850162001bb8565b91505092915050565b7f5061796d656e74546f6b656e206e6f7420736574000000000000000000000000600082015250565b600062001c3960148362001a74565b915062001c468262001c01565b602082019050919050565b6000602082019050818103600083015262001c6c8162001c2a565b9050919050565b600062001c80826200161a565b915062001c8d836200161a565b925082820262001c9d816200161a565b9150828204841483151762001cb75762001cb662001af7565b5b5092915050565b600060408201905062001cd5600083018562001785565b62001ce4602083018462001624565b9392505050565b7f4e6f7420656e6f756768206665657320636f6c6c656374656400000000000000600082015250565b600062001d2360198362001a74565b915062001d308262001ceb565b602082019050919050565b6000602082019050818103600083015262001d568162001d14565b9050919050565b600062001d6a826200161a565b915062001d77836200161a565b925082820390508181111562001d925762001d9162001af7565b5b92915050565b7f4e487b7100000000000000000000000000000000000000000000000000000000600052601260045260246000fd5b600062001dd4826200161a565b915062001de1836200161a565b92508262001df45762001df362001d98565b5b828204905092915050565b7f4e6f7420656e6f756768207072697a6500000000000000000000000000000000600082015250565b600062001e3760108362001a74565b915062001e448262001dff565b602082019050919050565b6000602082019050818103600083015262001e6a8162001e28565b9050919050565b7f546f6f20736f6f6e20746f20636c6f7365000000000000000000000000000000600082015250565b600062001ea960118362001a74565b915062001eb68262001e71565b602082019050919050565b6000602082019050818103600083015262001edc8162001e9a565b9050919050565b7f416c726561647920636c6f736564000000000000000000000000000000000000600082015250565b600062001f1b600e8362001a74565b915062001f288262001ee3565b602082019050919050565b6000602082019050818103600083015262001f4e8162001f0c565b9050919050565b600062001f62826200161a565b915062001f6f836200161a565b92508262001f825762001f8162001d98565b5b828206905092915050565b7f4e487b7100000000000000000000000000000000000000000000000000000000600052603260045260246000fd5b600062001fc9826200161a565b91506000820362001fdf5762001fde62001af7565b5b600182039050919050565b7f4c6f7474657279206973206f70656e0000000000000000000000000000000000600082015250565b600062002022600f8362001a74565b91506200202f8262001fea565b602082019050919050565b60006020820190508181036000830152620020558162002013565b9050919050565b7f436c6f73696e672074696d65206d75737420626520696e20746865206675747560008201527f7265000000000000000000000000000000000000000000000000000000000000602082015250565b6000620020ba60228362001a74565b9150620020c7826200205c565b604082019050919050565b60006020820190508181036000830152620020ed81620020ab565b9050919050565b600062002101826200161a565b91507fffffffffffffffffffffffffffffffffffffffffffffffffffffffffffffffff820362002136576200213562001af7565b5b600182019050919050565b7f5061796d656e546f6b656e20616c726561647920736574000000000000000000600082015250565b60006200217960178362001a74565b9150620021868262002141565b602082019050919050565b60006020820190508181036000830152620021ac816200216a565b9050919050565b600081519050919050565b60005b83811015620021de578082015181840152602081019050620021c1565b60008484015250505050565b6000620021f782620021b3565b62002203818562001a74565b935062002215818560208601620021be565b62002220816200185d565b840191505092915050565b60006040820190508181036000830152620022478185620021ea565b905081810360208301526200225d8184620021ea565b90509392505050565b7f4f776e61626c653a206e6577206f776e657220697320746865207a65726f206160008201527f6464726573730000000000000000000000000000000000000000000000000000602082015250565b6000620022c460268362001a74565b9150620022d18262002266565b604082019050919050565b60006020820190508181036000830152620022f781620022b5565b9050919050565b7f4f776e61626c653a2063616c6c6572206973206e6f7420746865206f776e6572600082015250565b60006200233660208362001a74565b91506200234382620022fe565b602082019050919050565b60006020820190508181036000830152620023698162002327565b905091905056fe60806040523480156200001157600080fd5b5060405162002c1138038062002c118339818101604052810190620000379190620003a6565b818181600390816200004a919062000676565b5080600490816200005c919062000676565b505050620000746000801b33620000ae60201b60201c565b620000a67f9f2df0fed2c77648de5860a4cc508cd0818c85b8b8a1ab4ceeef8d981c8956a633620000ae60201b60201c565b50506200075d565b620000c08282620001a060201b60201c565b6200019c5760016005600084815260200190815260200160002060000160008373ffffffffffffffffffffffffffffffffffffffff1673ffffffffffffffffffffffffffffffffffffffff16815260200190815260200160002060006101000a81548160ff021916908315150217905550620001416200020b60201b60201c565b73ffffffffffffffffffffffffffffffffffffffff168173ffffffffffffffffffffffffffffffffffffffff16837f2f8788117e7eff1d82e926ec794901d17c78024a50270940304540a733656f0d60405160405180910390a45b5050565b60006005600084815260200190815260200160002060000160008373ffffffffffffffffffffffffffffffffffffffff1673ffffffffffffffffffffffffffffffffffffffff16815260200190815260200160002060009054906101000a900460ff16905092915050565b600033905090565b6000604051905090565b600080fd5b600080fd5b600080fd5b600080fd5b6000601f19601f8301169050919050565b7f4e487b7100000000000000000000000000000000000000000000000000000000600052604160045260246000fd5b6200027c8262000231565b810181811067ffffffffffffffff821117156200029e576200029d62000242565b5b80604052505050565b6000620002b362000213565b9050620002c1828262000271565b919050565b600067ffffffffffffffff821115620002e457620002e362000242565b5b620002ef8262000231565b9050602081019050919050565b60005b838110156200031c578082015181840152602081019050620002ff565b60008484015250505050565b60006200033f6200033984620002c6565b620002a7565b9050828152602081018484840111156200035e576200035d6200022c565b5b6200036b848285620002fc565b509392505050565b600082601f8301126200038b576200038a62000227565b5b81516200039d84826020860162000328565b91505092915050565b60008060408385031215620003c057620003bf6200021d565b5b600083015167ffffffffffffffff811115620003e157620003e062000222565b5b620003ef8582860162000373565b925050602083015167ffffffffffffffff81111562000413576200041262000222565b5b620004218582860162000373565b9150509250929050565b600081519050919050565b7f4e487b7100000000000000000000000000000000000000000000000000000000600052602260045260246000fd5b600060028204905060018216806200047e57607f821691505b60208210810362000494576200049362000436565b5b50919050565b60008190508160005260206000209050919050565b60006020601f8301049050919050565b600082821b905092915050565b600060088302620004fe7fffffffffffffffffffffffffffffffffffffffffffffffffffffffffffffffff82620004bf565b6200050a8683620004bf565b95508019841693508086168417925050509392505050565b6000819050919050565b6000819050919050565b600062000557620005516200054b8462000522565b6200052c565b62000522565b9050919050565b6000819050919050565b620005738362000536565b6200058b62000582826200055e565b848454620004cc565b825550505050565b600090565b620005a262000593565b620005af81848462000568565b505050565b5b81811015620005d757620005cb60008262000598565b600181019050620005b5565b5050565b601f8211156200062657620005f0816200049a565b620005fb84620004af565b810160208510156200060b578190505b620006236200061a85620004af565b830182620005b4565b50505b505050565b600082821c905092915050565b60006200064b600019846008026200062b565b1980831691505092915050565b600062000666838362000638565b9150826002028217905092915050565b62000681826200042b565b67ffffffffffffffff8111156200069d576200069c62000242565b5b620006a9825462000465565b620006b6828285620005db565b600060209050601f831160018114620006ee5760008415620006d9578287015190505b620006e5858262000658565b86555062000755565b601f198416620006fe866200049a565b60005b82811015620007285784890151825560018201915060208501945060208101905062000701565b8683101562000748578489015162000744601f89168262000638565b8355505b6001600288020188555050505b505050505050565b6124a4806200076d6000396000f3fe608060405234801561001057600080fd5b50600436106101125760003560e01c806301ffc9a71461011757806306fdde0314610147578063095ea7b31461016557806318160ddd1461019557806323b872dd146101b3578063248a9ca3146101e35780632f2ff15d14610213578063313ce5671461022f57806336568abe1461024d578063395093511461026957806340c10f191461029957806342966c68146102b557806370a08231146102d157806379cc67901461030157806391d148541461031d57806395d89b411461034d578063a217fddf1461036b578063a457c2d714610389578063a9059cbb146103b9578063d5391393146103e9578063d547741f14610407578063dd62ed3e14610423575b600080fd5b610131600480360381019061012c919061176a565b610453565b60405161013e91906117b2565b60405180910390f35b61014f6104cd565b60405161015c919061185d565b60405180910390f35b61017f600480360381019061017a9190611913565b61055f565b60405161018c91906117b2565b60405180910390f35b61019d610582565b6040516101aa9190611962565b60405180910390f35b6101cd60048036038101906101c8919061197d565b61058c565b6040516101da91906117b2565b60405180910390f35b6101fd60048036038101906101f89190611a06565b6105bb565b60405161020a9190611a42565b60405180910390f35b61022d60048036038101906102289190611a5d565b6105db565b005b6102376105fc565b6040516102449190611ab9565b60405180910390f35b61026760048036038101906102629190611a5d565b610605565b005b610283600480360381019061027e9190611913565b610688565b60405161029091906117b2565b60405180910390f35b6102b360048036038101906102ae9190611913565b6106bf565b005b6102cf60048036038101906102ca9190611ad4565b6106f8565b005b6102eb60048036038101906102e69190611b01565b61070c565b6040516102f89190611962565b60405180910390f35b61031b60048036038101906103169190611913565b610754565b005b61033760048036038101906103329190611a5d565b610774565b60405161034491906117b2565b60405180910390f35b6103556107df565b604051610362919061185d565b60405180910390f35b610373610871565b6040516103809190611a42565b60405180910390f35b6103a3600480360381019061039e9190611913565b610878565b6040516103b091906117b2565b60405180910390f35b6103d360048036038101906103ce9190611913565b6108ef565b6040516103e091906117b2565b60405180910390f35b6103f1610912565b6040516103fe9190611a42565b60405180910390f35b610421600480360381019061041c9190611a5d565b610936565b005b61043d60048036038101906104389190611b2e565b610957565b60405161044a9190611962565b60405180910390f35b60007f7965db0b000000000000000000000000000000000000000000000000000000007bffffffffffffffffffffffffffffffffffffffffffffffffffffffff1916827bffffffffffffffffffffffffffffffffffffffffffffffffffffffff191614806104c657506104c5826109de565b5b9050919050565b6060600380546104dc90611b9d565b80601f016020809104026020016040519081016040528092919081815260200182805461050890611b9d565b80156105555780601f1061052a57610100808354040283529160200191610555565b820191906000526020600020905b81548152906001019060200180831161053857829003601f168201915b5050505050905090565b60008061056a610a48565b9050610577818585610a50565b600191505092915050565b6000600254905090565b600080610597610a48565b90506105a4858285610c19565b6105af858585610ca5565b60019150509392505050565b600060056000838152602001908152602001600020600101549050919050565b6105e4826105bb565b6105ed81610f1b565b6105f78383610f2f565b505050565b60006012905090565b61060d610a48565b73ffffffffffffffffffffffffffffffffffffffff168173ffffffffffffffffffffffffffffffffffffffff161461067a576040517f08c379a000000000000000000000000000000000000000000000000000000000815260040161067190611c40565b60405180910390fd5b6106848282611010565b5050565b600080610693610a48565b90506106b48185856106a58589610957565b6106af9190611c8f565b610a50565b600191505092915050565b7f9f2df0fed2c77648de5860a4cc508cd0818c85b8b8a1ab4ceeef8d981c8956a66106e981610f1b565b6106f383836110f2565b505050565b610709610703610a48565b82611248565b50565b60008060008373ffffffffffffffffffffffffffffffffffffffff1673ffffffffffffffffffffffffffffffffffffffff168152602001908152602001600020549050919050565b61076682610760610a48565b83610c19565b6107708282611248565b5050565b60006005600084815260200190815260200160002060000160008373ffffffffffffffffffffffffffffffffffffffff1673ffffffffffffffffffffffffffffffffffffffff16815260200190815260200160002060009054906101000a900460ff16905092915050565b6060600480546107ee90611b9d565b80601f016020809104026020016040519081016040528092919081815260200182805461081a90611b9d565b80156108675780601f1061083c57610100808354040283529160200191610867565b820191906000526020600020905b81548152906001019060200180831161084a57829003601f168201915b5050505050905090565b6000801b81565b600080610883610a48565b905060006108918286610957565b9050838110156108d6576040517f08c379a00000000000000000000000000000000000000000000000000000000081526004016108cd90611d35565b60405180910390fd5b6108e38286868403610a50565b60019250505092915050565b6000806108fa610a48565b9050610907818585610ca5565b600191505092915050565b7f9f2df0fed2c77648de5860a4cc508cd0818c85b8b8a1ab4ceeef8d981c8956a681565b61093f826105bb565b61094881610f1b565b6109528383611010565b505050565b6000600160008473ffffffffffffffffffffffffffffffffffffffff1673ffffffffffffffffffffffffffffffffffffffff16815260200190815260200160002060008373ffffffffffffffffffffffffffffffffffffffff1673ffffffffffffffffffffffffffffffffffffffff16815260200190815260200160002054905092915050565b60007f01ffc9a7000000000000000000000000000000000000000000000000000000007bffffffffffffffffffffffffffffffffffffffffffffffffffffffff1916827bffffffffffffffffffffffffffffffffffffffffffffffffffffffff1916149050919050565b600033905090565b600073ffffffffffffffffffffffffffffffffffffffff168373ffffffffffffffffffffffffffffffffffffffff1603610abf576040517f08c379a0000000000000000000000000000000000000000000000000000000008152600401610ab690611dc7565b60405180910390fd5b600073ffffffffffffffffffffffffffffffffffffffff168273ffffffffffffffffffffffffffffffffffffffff1603610b2e576040517f08c379a0000000000000000000000000000000000000000000000000000000008152600401610b2590611e59565b60405180910390fd5b80600160008573ffffffffffffffffffffffffffffffffffffffff1673ffffffffffffffffffffffffffffffffffffffff16815260200190815260200160002060008473ffffffffffffffffffffffffffffffffffffffff1673ffffffffffffffffffffffffffffffffffffffff168152602001908152602001600020819055508173ffffffffffffffffffffffffffffffffffffffff168373ffffffffffffffffffffffffffffffffffffffff167f8c5be1e5ebec7d5bd14f71427d1e84f3dd0314c0f7b2291e5b200ac8c7c3b92583604051610c0c9190611962565b60405180910390a3505050565b6000610c258484610957565b90507fffffffffffffffffffffffffffffffffffffffffffffffffffffffffffffffff8114610c9f5781811015610c91576040517f08c379a0000000000000000000000000000000000000000000000000000000008152600401610c8890611ec5565b60405180910390fd5b610c9e8484848403610a50565b5b50505050565b600073ffffffffffffffffffffffffffffffffffffffff168373ffffffffffffffffffffffffffffffffffffffff1603610d14576040517f08c379a0000000000000000000000000000000000000000000000000000000008152600401610d0b90611f57565b60405180910390fd5b600073ffffffffffffffffffffffffffffffffffffffff168273ffffffffffffffffffffffffffffffffffffffff1603610d83576040517f08c379a0000000000000000000000000000000000000000000000000000000008152600401610d7a90611fe9565b60405180910390fd5b610d8e838383611415565b60008060008573ffffffffffffffffffffffffffffffffffffffff1673ffffffffffffffffffffffffffffffffffffffff16815260200190815260200160002054905081811015610e14576040517f08c379a0000000000000000000000000000000000000000000000000000000008152600401610e0b9061207b565b60405180910390fd5b8181036000808673ffffffffffffffffffffffffffffffffffffffff1673ffffffffffffffffffffffffffffffffffffffff16815260200190815260200160002081905550816000808573ffffffffffffffffffffffffffffffffffffffff1673ffffffffffffffffffffffffffffffffffffffff168152602001908152602001600020600082825401925050819055508273ffffffffffffffffffffffffffffffffffffffff168473ffffffffffffffffffffffffffffffffffffffff167fddf252ad1be2c89b69c2b068fc378daa952ba7f163c4a11628f55a4df523b3ef84604051610f029190611962565b60405180910390a3610f1584848461141a565b50505050565b610f2c81610f27610a48565b61141f565b50565b610f398282610774565b61100c5760016005600084815260200190815260200160002060000160008373ffffffffffffffffffffffffffffffffffffffff1673ffffffffffffffffffffffffffffffffffffffff16815260200190815260200160002060006101000a81548160ff021916908315150217905550610fb1610a48565b73ffffffffffffffffffffffffffffffffffffffff168173ffffffffffffffffffffffffffffffffffffffff16837f2f8788117e7eff1d82e926ec794901d17c78024a50270940304540a733656f0d60405160405180910390a45b5050565b61101a8282610774565b156110ee5760006005600084815260200190815260200160002060000160008373ffffffffffffffffffffffffffffffffffffffff1673ffffffffffffffffffffffffffffffffffffffff16815260200190815260200160002060006101000a81548160ff021916908315150217905550611093610a48565b73ffffffffffffffffffffffffffffffffffffffff168173ffffffffffffffffffffffffffffffffffffffff16837ff6391f5c32d9c69d2a47ea670b442974b53935d1edc7fd64eb21e047a839171b60405160405180910390a45b5050565b600073ffffffffffffffffffffffffffffffffffffffff168273ffffffffffffffffffffffffffffffffffffffff1603611161576040517f08c379a0000000000000000000000000000000000000000000000000000000008152600401611158906120e7565b60405180910390fd5b61116d60008383611415565b806002600082825461117f9190611c8f565b92505081905550806000808473ffffffffffffffffffffffffffffffffffffffff1673ffffffffffffffffffffffffffffffffffffffff168152602001908152602001600020600082825401925050819055508173ffffffffffffffffffffffffffffffffffffffff16600073ffffffffffffffffffffffffffffffffffffffff167fddf252ad1be2c89b69c2b068fc378daa952ba7f163c4a11628f55a4df523b3ef836040516112309190611962565b60405180910390a36112446000838361141a565b5050565b600073ffffffffffffffffffffffffffffffffffffffff168273ffffffffffffffffffffffffffffffffffffffff16036112b7576040517f08c379a00000000000000000000000000000000000000000000000000000000081526004016112ae90612179565b60405180910390fd5b6112c382600083611415565b60008060008473ffffffffffffffffffffffffffffffffffffffff1673ffffffffffffffffffffffffffffffffffffffff16815260200190815260200160002054905081811015611349576040517f08c379a00000000000000000000000000000000000000000000000000000000081526004016113409061220b565b60405180910390fd5b8181036000808573ffffffffffffffffffffffffffffffffffffffff1673ffffffffffffffffffffffffffffffffffffffff1681526020019081526020016000208190555081600260008282540392505081905550600073ffffffffffffffffffffffffffffffffffffffff168373ffffffffffffffffffffffffffffffffffffffff167fddf252ad1be2c89b69c2b068fc378daa952ba7f163c4a11628f55a4df523b3ef846040516113fc9190611962565b60405180910390a36114108360008461141a565b505050565b505050565b505050565b6114298282610774565b6114a057611436816114a4565b6114448360001c60206114d1565b6040516020016114559291906122ff565b6040516020818303038152906040526040517f08c379a0000000000000000000000000000000000000000000000000000000008152600401611497919061185d565b60405180910390fd5b5050565b60606114ca8273ffffffffffffffffffffffffffffffffffffffff16601460ff166114d1565b9050919050565b6060600060028360026114e49190612339565b6114ee9190611c8f565b67ffffffffffffffff8111156115075761150661237b565b5b6040519080825280601f01601f1916602001820160405280156115395781602001600182028036833780820191505090505b5090507f300000000000000000000000000000000000000000000000000000000000000081600081518110611571576115706123aa565b5b60200101907effffffffffffffffffffffffffffffffffffffffffffffffffffffffffffff1916908160001a9053507f7800000000000000000000000000000000000000000000000000000000000000816001815181106115d5576115d46123aa565b5b60200101907effffffffffffffffffffffffffffffffffffffffffffffffffffffffffffff1916908160001a905350600060018460026116159190612339565b61161f9190611c8f565b90505b60018111156116bf577f3031323334353637383961626364656600000000000000000000000000000000600f861660108110611661576116606123aa565b5b1a60f81b828281518110611678576116776123aa565b5b60200101907effffffffffffffffffffffffffffffffffffffffffffffffffffffffffffff1916908160001a905350600485901c9450806116b8906123d9565b9050611622565b5060008414611703576040517f08c379a00000000000000000000000000000000000000000000000000000000081526004016116fa9061244e565b60405180910390fd5b8091505092915050565b600080fd5b60007fffffffff0000000000000000000000000000000000000000000000000000000082169050919050565b61174781611712565b811461175257600080fd5b50565b6000813590506117648161173e565b92915050565b6000602082840312156117805761177f61170d565b5b600061178e84828501611755565b91505092915050565b60008115159050919050565b6117ac81611797565b82525050565b60006020820190506117c760008301846117a3565b92915050565b600081519050919050565b600082825260208201905092915050565b60005b838110156118075780820151818401526020810190506117ec565b60008484015250505050565b6000601f19601f8301169050919050565b600061182f826117cd565b61183981856117d8565b93506118498185602086016117e9565b61185281611813565b840191505092915050565b600060208201905081810360008301526118778184611824565b905092915050565b600073ffffffffffffffffffffffffffffffffffffffff82169050919050565b60006118aa8261187f565b9050919050565b6118ba8161189f565b81146118c557600080fd5b50565b6000813590506118d7816118b1565b92915050565b6000819050919050565b6118f0816118dd565b81146118fb57600080fd5b50565b60008135905061190d816118e7565b92915050565b6000806040838503121561192a5761192961170d565b5b6000611938858286016118c8565b9250506020611949858286016118fe565b9150509250929050565b61195c816118dd565b82525050565b60006020820190506119776000830184611953565b92915050565b6000806000606084860312156119965761199561170d565b5b60006119a4868287016118c8565b93505060206119b5868287016118c8565b92505060406119c6868287016118fe565b9150509250925092565b6000819050919050565b6119e3816119d0565b81146119ee57600080fd5b50565b600081359050611a00816119da565b92915050565b600060208284031215611a1c57611a1b61170d565b5b6000611a2a848285016119f1565b91505092915050565b611a3c816119d0565b82525050565b6000602082019050611a576000830184611a33565b92915050565b60008060408385031215611a7457611a7361170d565b5b6000611a82858286016119f1565b9250506020611a93858286016118c8565b9150509250929050565b600060ff82169050919050565b611ab381611a9d565b82525050565b6000602082019050611ace6000830184611aaa565b92915050565b600060208284031215611aea57611ae961170d565b5b6000611af8848285016118fe565b91505092915050565b600060208284031215611b1757611b1661170d565b5b6000611b25848285016118c8565b91505092915050565b60008060408385031215611b4557611b4461170d565b5b6000611b53858286016118c8565b9250506020611b64858286016118c8565b9150509250929050565b7f4e487b7100000000000000000000000000000000000000000000000000000000600052602260045260246000fd5b60006002820490506001821680611bb557607f821691505b602082108103611bc857611bc7611b6e565b5b50919050565b7f416363657373436f6e74726f6c3a2063616e206f6e6c792072656e6f756e636560008201527f20726f6c657320666f722073656c660000000000000000000000000000000000602082015250565b6000611c2a602f836117d8565b9150611c3582611bce565b604082019050919050565b60006020820190508181036000830152611c5981611c1d565b9050919050565b7f4e487b7100000000000000000000000000000000000000000000000000000000600052601160045260246000fd5b6000611c9a826118dd565b9150611ca5836118dd565b9250828201905080821115611cbd57611cbc611c60565b5b92915050565b7f45524332303a2064656372656173656420616c6c6f77616e63652062656c6f7760008201527f207a65726f000000000000000000000000000000000000000000000000000000602082015250565b6000611d1f6025836117d8565b9150611d2a82611cc3565b604082019050919050565b60006020820190508181036000830152611d4e81611d12565b9050919050565b7f45524332303a20617070726f76652066726f6d20746865207a65726f2061646460008201527f7265737300000000000000000000000000000000000000000000000000000000602082015250565b6000611db16024836117d8565b9150611dbc82611d55565b604082019050919050565b60006020820190508181036000830152611de081611da4565b9050919050565b7f45524332303a20617070726f766520746f20746865207a65726f20616464726560008201527f7373000000000000000000000000000000000000000000000000000000000000602082015250565b6000611e436022836117d8565b9150611e4e82611de7565b604082019050919050565b60006020820190508181036000830152611e7281611e36565b9050919050565b7f45524332303a20696e73756666696369656e7420616c6c6f77616e6365000000600082015250565b6000611eaf601d836117d8565b9150611eba82611e79565b602082019050919050565b60006020820190508181036000830152611ede81611ea2565b9050919050565b7f45524332303a207472616e736665722066726f6d20746865207a65726f20616460008201527f6472657373000000000000000000000000000000000000000000000000000000602082015250565b6000611f416025836117d8565b9150611f4c82611ee5565b604082019050919050565b60006020820190508181036000830152611f7081611f34565b9050919050565b7f45524332303a207472616e7366657220746f20746865207a65726f206164647260008201527f6573730000000000000000000000000000000000000000000000000000000000602082015250565b6000611fd36023836117d8565b9150611fde82611f77565b604082019050919050565b6000602082019050818103600083015261200281611fc6565b9050919050565b7f45524332303a207472616e7366657220616d6f756e742065786365656473206260008201527f616c616e63650000000000000000000000000000000000000000000000000000602082015250565b60006120656026836117d8565b915061207082612009565b604082019050919050565b6000602082019050818103600083015261209481612058565b9050919050565b7f45524332303a206d696e7420746f20746865207a65726f206164647265737300600082015250565b60006120d1601f836117d8565b91506120dc8261209b565b602082019050919050565b60006020820190508181036000830152612100816120c4565b9050919050565b7f45524332303a206275726e2066726f6d20746865207a65726f2061646472657360008201527f7300000000000000000000000000000000000000000000000000000000000000602082015250565b60006121636021836117d8565b915061216e82612107565b604082019050919050565b6000602082019050818103600083015261219281612156565b9050919050565b7f45524332303a206275726e20616d6f756e7420657863656564732062616c616e60008201527f6365000000000000000000000000000000000000000000000000000000000000602082015250565b60006121f56022836117d8565b915061220082612199565b604082019050919050565b60006020820190508181036000830152612224816121e8565b9050919050565b600081905092915050565b7f416363657373436f6e74726f6c3a206163636f756e7420000000000000000000600082015250565b600061226c60178361222b565b915061227782612236565b601782019050919050565b600061228d826117cd565b612297818561222b565b93506122a78185602086016117e9565b80840191505092915050565b7f206973206d697373696e6720726f6c6520000000000000000000000000000000600082015250565b60006122e960118361222b565b91506122f4826122b3565b601182019050919050565b600061230a8261225f565b91506123168285612282565b9150612321826122dc565b915061232d8284612282565b91508190509392505050565b6000612344826118dd565b915061234f836118dd565b925082820261235d816118dd565b9150828204841483151761237457612373611c60565b5b5092915050565b7f4e487b7100000000000000000000000000000000000000000000000000000000600052604160045260246000fd5b7f4e487b7100000000000000000000000000000000000000000000000000000000600052603260045260246000fd5b60006123e4826118dd565b9150600082036123f7576123f6611c60565b5b600182039050919050565b7f537472696e67733a20686578206c656e67746820696e73756666696369656e74600082015250565b60006124386020836117d8565b915061244382612402565b602082019050919050565b600060208201905081810360008301526124678161242b565b905091905056fea2646970667358221220bb1b33abd544b731ddea05c339aa5e3b9569c3ddfea5b9b49fbf6941da7dbeca64736f6c63430008120033a26469706673582212207a9fb599bf2c3cc21f2235b953f41da096622aa62a0a84aa373150418ccf8b3f64736f6c63430008120033",
  "linkReferences": {},
  "deployedLinkReferences": {}
}